{
  "contractName": "Loans",
  "abi": [
    {
      "constant": true,
      "inputs": [],
      "name": "owner",
      "outputs": [
        {
          "name": "",
          "type": "address"
        }
      ],
      "payable": false,
      "stateMutability": "view",
      "type": "function"
    },
    {
      "inputs": [],
      "payable": false,
      "stateMutability": "nonpayable",
      "type": "constructor"
    },
    {
      "constant": false,
      "inputs": [
        {
          "name": "amount",
          "type": "uint256"
        }
      ],
      "name": "request",
      "outputs": [],
      "payable": false,
      "stateMutability": "nonpayable",
      "type": "function"
    },
    {
      "constant": false,
      "inputs": [],
      "name": "receiveFunds",
      "outputs": [],
      "payable": false,
      "stateMutability": "nonpayable",
      "type": "function"
    },
    {
      "constant": false,
      "inputs": [],
      "name": "rejectFunds",
      "outputs": [],
      "payable": false,
      "stateMutability": "nonpayable",
      "type": "function"
    },
    {
      "constant": false,
      "inputs": [
        {
          "name": "amount",
          "type": "uint256"
        },
        {
          "name": "messageHash",
          "type": "bytes32"
        },
        {
          "name": "v",
          "type": "uint8"
        },
        {
          "name": "r",
          "type": "bytes32"
        },
        {
          "name": "s",
          "type": "bytes32"
        }
      ],
      "name": "delegatedRequest",
      "outputs": [],
      "payable": false,
      "stateMutability": "nonpayable",
      "type": "function"
    },
    {
      "constant": false,
      "inputs": [
        {
          "name": "messageHash",
          "type": "bytes32"
        },
        {
          "name": "v",
          "type": "uint8"
        },
        {
          "name": "r",
          "type": "bytes32"
        },
        {
          "name": "s",
          "type": "bytes32"
        }
      ],
      "name": "delegatedReceiveFunds",
      "outputs": [],
      "payable": false,
      "stateMutability": "nonpayable",
      "type": "function"
    },
    {
      "constant": false,
      "inputs": [
        {
          "name": "a",
          "type": "address"
        }
      ],
      "name": "TEST_balance",
      "outputs": [
        {
          "name": "",
          "type": "uint256"
        }
      ],
      "payable": false,
      "stateMutability": "nonpayable",
      "type": "function"
    },
    {
      "constant": false,
      "inputs": [
        {
          "name": "applicant",
          "type": "address"
        },
        {
          "name": "amount",
          "type": "uint256"
        }
      ],
      "name": "approve",
      "outputs": [],
      "payable": true,
      "stateMutability": "payable",
      "type": "function"
    },
    {
      "constant": false,
      "inputs": [
        {
          "name": "applicant",
          "type": "address"
        }
      ],
      "name": "reject",
      "outputs": [],
      "payable": false,
      "stateMutability": "nonpayable",
      "type": "function"
    },
    {
      "constant": true,
      "inputs": [
        {
          "name": "applicant",
          "type": "address"
        }
      ],
      "name": "getApproved",
      "outputs": [
        {
          "name": "",
          "type": "uint256"
        }
      ],
      "payable": false,
      "stateMutability": "view",
      "type": "function"
    },
    {
      "constant": true,
      "inputs": [
        {
          "name": "applicant",
          "type": "address"
        }
      ],
      "name": "getRequested",
      "outputs": [
        {
          "name": "",
          "type": "uint256"
        }
      ],
      "payable": false,
      "stateMutability": "view",
      "type": "function"
    }
  ],
  "bytecode": "0x608060405234801561001057600080fd5b50336000806101000a81548173ffffffffffffffffffffffffffffffffffffffff021916908373ffffffffffffffffffffffffffffffffffffffff160217905550610ebb806100606000396000f3fe60806040526004361061009b5760003560e01c80637761c88d116100645780637761c88d146102355780638da5cb5b14610291578063ab0da5a9146102e8578063d845a4b314610339578063e0ef534314610374578063eaeca52f1461038b5761009b565b80625c33e1146100a057806303898b55146100b7578063095ea7b31461011c5780631afd2d771461016a5780633dddc9ea146101d0575b600080fd5b3480156100ac57600080fd5b506100b56103f0565b005b3480156100c357600080fd5b50610106600480360360208110156100da57600080fd5b81019080803573ffffffffffffffffffffffffffffffffffffffff1690602001909291905050506103fb565b6040518082815260200191505060405180910390f35b6101686004803603604081101561013257600080fd5b81019080803573ffffffffffffffffffffffffffffffffffffffff16906020019092919080359060200190929190505050610475565b005b34801561017657600080fd5b506101ce600480360360a081101561018d57600080fd5b810190808035906020019092919080359060200190929190803560ff16906020019092919080359060200190929190803590602001909291905050506106a2565b005b3480156101dc57600080fd5b5061021f600480360360208110156101f357600080fd5b81019080803573ffffffffffffffffffffffffffffffffffffffff1690602001909291905050506106da565b6040518082815260200191505060405180910390f35b34801561024157600080fd5b5061028f6004803603608081101561025857600080fd5b8101908080359060200190929190803560ff169060200190929190803590602001909291908035906020019092919050505061077c565b005b34801561029d57600080fd5b506102a66107b8565b604051808273ffffffffffffffffffffffffffffffffffffffff1673ffffffffffffffffffffffffffffffffffffffff16815260200191505060405180910390f35b3480156102f457600080fd5b506103376004803603602081101561030b57600080fd5b81019080803573ffffffffffffffffffffffffffffffffffffffff1690602001909291905050506107dd565b005b34801561034557600080fd5b506103726004803603602081101561035c57600080fd5b810190808035906020019092919050505061095c565b005b34801561038057600080fd5b50610389610969565b005b34801561039757600080fd5b506103da600480360360208110156103ae57600080fd5b81019080803573ffffffffffffffffffffffffffffffffffffffff169060200190929190505050610aaa565b6040518082815260200191505060405180910390f35b6103f933610b4c565b565b60008060009054906101000a900473ffffffffffffffffffffffffffffffffffffffff1673ffffffffffffffffffffffffffffffffffffffff163373ffffffffffffffffffffffffffffffffffffffff161461045657600080fd5b8173ffffffffffffffffffffffffffffffffffffffff16319050919050565b6000809054906101000a900473ffffffffffffffffffffffffffffffffffffffff1673ffffffffffffffffffffffffffffffffffffffff163373ffffffffffffffffffffffffffffffffffffffff16146104ce57600080fd5b6000600160008473ffffffffffffffffffffffffffffffffffffffff1673ffffffffffffffffffffffffffffffffffffffff16815260200190815260200160002054141561051b57600080fd5b6000600260008473ffffffffffffffffffffffffffffffffffffffff1673ffffffffffffffffffffffffffffffffffffffff168152602001908152602001600020541461056757600080fd5b6000808214156105b857600160008473ffffffffffffffffffffffffffffffffffffffff1673ffffffffffffffffffffffffffffffffffffffff168152602001908152602001600020549050610608565b600160008473ffffffffffffffffffffffffffffffffffffffff1673ffffffffffffffffffffffffffffffffffffffff1681526020019081526020016000205482111561060457600080fd5b8190505b80341461061457600080fd5b80600260008573ffffffffffffffffffffffffffffffffffffffff1673ffffffffffffffffffffffffffffffffffffffff168152602001908152602001600020819055506000600160008573ffffffffffffffffffffffffffffffffffffffff1673ffffffffffffffffffffffffffffffffffffffff16815260200190815260200160002081905550505050565b83806106ad33610c22565b146106b757600080fd5b60006106c586868686610cd4565b90506106d18188610d47565b50505050505050565b60008060009054906101000a900473ffffffffffffffffffffffffffffffffffffffff1673ffffffffffffffffffffffffffffffffffffffff163373ffffffffffffffffffffffffffffffffffffffff161461073557600080fd5b600260008373ffffffffffffffffffffffffffffffffffffffff1673ffffffffffffffffffffffffffffffffffffffff168152602001908152602001600020549050919050565b838061078733610c22565b1461079157600080fd5b600061079f86868686610cd4565b905060008190506107af81610b4c565b50505050505050565b6000809054906101000a900473ffffffffffffffffffffffffffffffffffffffff1681565b6000809054906101000a900473ffffffffffffffffffffffffffffffffffffffff1673ffffffffffffffffffffffffffffffffffffffff163373ffffffffffffffffffffffffffffffffffffffff161461083657600080fd5b6000600160008373ffffffffffffffffffffffffffffffffffffffff1673ffffffffffffffffffffffffffffffffffffffff16815260200190815260200160002054141561088357600080fd5b6000600260008373ffffffffffffffffffffffffffffffffffffffff1673ffffffffffffffffffffffffffffffffffffffff16815260200190815260200160002054146108cf57600080fd5b6000600260008373ffffffffffffffffffffffffffffffffffffffff1673ffffffffffffffffffffffffffffffffffffffff168152602001908152602001600020819055506000600160008373ffffffffffffffffffffffffffffffffffffffff1673ffffffffffffffffffffffffffffffffffffffff1681526020019081526020016000208190555050565b6109663382610d47565b50565b6000600260003373ffffffffffffffffffffffffffffffffffffffff1673ffffffffffffffffffffffffffffffffffffffff1681526020019081526020016000205414156109b657600080fd5b6000600260003373ffffffffffffffffffffffffffffffffffffffff1673ffffffffffffffffffffffffffffffffffffffff1681526020019081526020016000205490506000600260003373ffffffffffffffffffffffffffffffffffffffff1673ffffffffffffffffffffffffffffffffffffffff168152602001908152602001600020819055506000809054906101000a900473ffffffffffffffffffffffffffffffffffffffff1673ffffffffffffffffffffffffffffffffffffffff166108fc829081150290604051600060405180830381858888f19350505050158015610aa6573d6000803e3d6000fd5b5050565b60008060009054906101000a900473ffffffffffffffffffffffffffffffffffffffff1673ffffffffffffffffffffffffffffffffffffffff163373ffffffffffffffffffffffffffffffffffffffff1614610b0557600080fd5b600160008373ffffffffffffffffffffffffffffffffffffffff1673ffffffffffffffffffffffffffffffffffffffff168152602001908152602001600020549050919050565b6000600260008373ffffffffffffffffffffffffffffffffffffffff1673ffffffffffffffffffffffffffffffffffffffff168152602001908152602001600020541415610b9957600080fd5b8073ffffffffffffffffffffffffffffffffffffffff166108fc600260008473ffffffffffffffffffffffffffffffffffffffff1673ffffffffffffffffffffffffffffffffffffffff168152602001908152602001600020549081150290604051600060405180830381858888f19350505050158015610c1e573d6000803e3d6000fd5b5050565b60008082604051602001808273ffffffffffffffffffffffffffffffffffffffff1673ffffffffffffffffffffffffffffffffffffffff1660601b81526014019150506040516020818303038152906040528051906020012060405160200180807f19457468657265756d205369676e6564204d6573736167653a0a333200000000815250601c0182815260200191505060405160208183030381529060405280519060200120905080915050919050565b600060018585858560405160008152602001604052604051808581526020018460ff1660ff1681526020018381526020018281526020019450505050506020604051602081039080840390855afa158015610d33573d6000803e3d6000fd5b505050602060405103519050949350505050565b6000811415610d5557600080fd5b6000600160008473ffffffffffffffffffffffffffffffffffffffff1673ffffffffffffffffffffffffffffffffffffffff1681526020019081526020016000205414610da157600080fd5b6000600260008473ffffffffffffffffffffffffffffffffffffffff1673ffffffffffffffffffffffffffffffffffffffff1681526020019081526020016000205414610ded57600080fd5b6000809054906101000a900473ffffffffffffffffffffffffffffffffffffffff1673ffffffffffffffffffffffffffffffffffffffff168273ffffffffffffffffffffffffffffffffffffffff161415610e4757600080fd5b80600160008473ffffffffffffffffffffffffffffffffffffffff1673ffffffffffffffffffffffffffffffffffffffff16815260200190815260200160002081905550505056fea165627a7a72305820c33000cb90e06c8111e569fe77157b06e686f3c6f4601345a30e1dd12ed3d7270029",
  "source": "pragma solidity >=0.5.0 <0.6.0;\n\n/* \n * Note: Repayment of the loan is not provided by the terms of reference.\n * Note: Refusal of the loan by the delegate person is also not provided by the terms of reference.\n */\n\ncontract Loans {\n\n    address payable public owner;\n    mapping (address => uint256) requests;\n    mapping (address => uint256) approved;\n    \n    constructor() public {\n        owner = msg.sender;\n    }\n    \n    modifier onlyOwner() {\n        require(msg.sender == owner);\n        _;\n    }\n\n\tmodifier onlyDelegate(bytes32 messageHash) {\n\t\trequire(addressHash(msg.sender) == messageHash);\n\t\t_;\n\t}\n    \n\t/* Applicant functions */\n\n    function request(uint256 amount) public {\n\t\t_request(msg.sender, amount);\n    }\n\n    function receiveFunds() public {\n\t\t_receiveFunds(msg.sender);\n    }\n\n    function rejectFunds() public {\n        require(approved[msg.sender] != 0);\n        \n        uint256 funds = approved[msg.sender];\n        approved[msg.sender] = 0;\n        owner.transfer(funds);\n    }\n\n\n\t/* Delegate functions */\n\n\t/*function DEBUG_delegatedRequest(uint256 amount, bytes32 messageHash, uint8 v, bytes32 r, bytes32 s) onlyDelegate(messageHash) public returns(address) {\n\t\taddress applicant = recoverApplicant(messageHash, v, r, s);\n\t\treturn applicant;\n\t}*/\n\n\tfunction delegatedRequest(uint256 amount, bytes32 messageHash, uint8 v, bytes32 r, bytes32 s) onlyDelegate(messageHash) public {\n\t\taddress applicant = recoverApplicant(messageHash, v, r, s);\n\t\t_request(applicant, amount);\n\t}\n\n\tfunction delegatedReceiveFunds(bytes32 messageHash, uint8 v, bytes32 r, bytes32 s) onlyDelegate(messageHash) public {\n\t\taddress applicant = recoverApplicant(messageHash, v, r, s);\n\t\taddress payable applicantPayable = address(uint160(applicant));\n\t\t_receiveFunds(applicantPayable);\n\t}\n\n\t/* Owner functions */\n\n\tfunction TEST_balance(address a) onlyOwner public returns(uint256) {\n\t\treturn a.balance;\n\t}\n\n\tfunction approve(address applicant, uint256 amount) onlyOwner payable public {\n        require(requests[applicant] != 0);\n        require(approved[applicant] == 0);\n        \n        uint256 approvedAmount;\n        \n        // Approve the entire amount if the `amount` is not specified\n        if (amount == 0) {\n            approvedAmount = requests[applicant];\n        } else {\n            require(amount <= requests[applicant]);\n            approvedAmount = amount;\n        }\n        \n        require(msg.value == approvedAmount);\n        \n        approved[applicant] = approvedAmount;\n        requests[applicant] = 0;\n    }\n\n    function reject(address applicant) onlyOwner public {\n        require(requests[applicant] != 0);\n        require(approved[applicant] == 0);\n        \n        approved[applicant] = 0;\n        requests[applicant] = 0;\n    }\n\n\tfunction getApproved(address applicant) onlyOwner view public returns(uint256) {\n\t\treturn approved[applicant];\n\t}\n\n\tfunction getRequested(address applicant) onlyOwner view public returns(uint256) {\n\t\treturn requests[applicant];\n\t}\n    \n\t/* Private functions */\n\n\tfunction _request(address applicant, uint256 amount) private {\n        require(amount != 0);\n        require(requests[applicant] == 0);\n        require(approved[applicant] == 0);\n        require(applicant != owner);\n        \n        requests[applicant] = amount;\n\t}\n\n\tfunction _receiveFunds(address payable applicant) private {\n        require(approved[applicant] != 0);\n\n        applicant.transfer(approved[applicant]);\n\t}\n    \n    function recoverApplicant(bytes32 hash, uint8 v, bytes32 r, bytes32 s) private returns (address) {\n        return ecrecover(hash, v, r, s);\n    }\n\n\tfunction addressHash(address a) private pure returns(bytes32) {\n\t\tbytes32 hash = keccak256(abi.encodePacked(\"\\x19Ethereum Signed Message:\\n32\", keccak256(abi.encodePacked(a))));\n\n    \treturn hash;\n\t}\n\n}",
  "sourcePath": "C:/Users/Sanya/Loans/contracts/Loans.sol",
  "compiler": {
    "name": "solc",
    "version": "0.5.8+commit.23d335f2.Emscripten.clang"
  },
  "schemaVersion": "3.0.14",
  "updatedAt": "2019-09-03T14:43:51.198Z",
  "devdoc": {
    "methods": {}
  },
  "userdoc": {
    "methods": {}
  }
}